{
  "_format": "hh-sol-artifact-1",
  "contractName": "EmiAutoPay",
  "sourceName": "contracts/EmiAutoPay.sol",
  "abi": [
    {
      "anonymous": false,
      "inputs": [
        {
          "indexed": true,
          "internalType": "uint256",
          "name": "planId",
          "type": "uint256"
        },
        {
          "indexed": true,
          "internalType": "address",
          "name": "receiver",
          "type": "address"
        }
      ],
      "name": "EmiCompleted",
      "type": "event"
    },
    {
      "anonymous": false,
      "inputs": [
        {
          "indexed": true,
          "internalType": "uint256",
          "name": "planId",
          "type": "uint256"
        },
        {
          "indexed": true,
          "internalType": "address",
          "name": "receiver",
          "type": "address"
        },
        {
          "indexed": false,
          "internalType": "uint256",
          "name": "amount",
          "type": "uint256"
        },
        {
          "indexed": false,
          "internalType": "uint256",
          "name": "nextPaymentTime",
          "type": "uint256"
        }
      ],
      "name": "EmiPaid",
      "type": "event"
    },
    {
      "anonymous": false,
      "inputs": [
        {
          "indexed": true,
          "internalType": "uint256",
          "name": "planId",
          "type": "uint256"
        },
        {
          "indexed": true,
          "internalType": "address",
          "name": "receiver",
          "type": "address"
        },
        {
          "indexed": false,
          "internalType": "string",
          "name": "receiverNetwork",
          "type": "string"
        },
        {
          "indexed": false,
          "internalType": "address",
          "name": "tokenAddress",
          "type": "address"
        },
        {
          "indexed": false,
          "internalType": "uint256",
          "name": "emiAmount",
          "type": "uint256"
        },
        {
          "indexed": false,
          "internalType": "uint256",
          "name": "interval",
          "type": "uint256"
        },
        {
          "indexed": false,
          "internalType": "uint256",
          "name": "totalAmount",
          "type": "uint256"
        }
      ],
      "name": "EmiPlanCreated",
      "type": "event"
    },
    {
      "anonymous": false,
      "inputs": [
        {
          "indexed": true,
          "internalType": "uint256",
          "name": "planId",
          "type": "uint256"
        },
        {
          "indexed": true,
          "internalType": "address",
          "name": "sender",
          "type": "address"
        }
      ],
      "name": "PlanActivated",
      "type": "event"
    },
    {
      "inputs": [
        {
          "internalType": "bytes",
          "name": "",
          "type": "bytes"
        }
      ],
      "name": "checkUpkeep",
      "outputs": [
        {
          "internalType": "bool",
          "name": "upkeepNeeded",
          "type": "bool"
        },
        {
          "internalType": "bytes",
          "name": "",
          "type": "bytes"
        }
      ],
      "stateMutability": "view",
      "type": "function"
    },
    {
      "inputs": [
        {
          "internalType": "address",
          "name": "receiver",
          "type": "address"
        },
        {
          "internalType": "string",
          "name": "receiverNetwork",
          "type": "string"
        },
        {
          "internalType": "address",
          "name": "tokenAddress",
          "type": "address"
        },
        {
          "internalType": "uint256",
          "name": "emiAmount",
          "type": "uint256"
        },
        {
          "internalType": "uint256",
          "name": "interval",
          "type": "uint256"
        },
        {
          "internalType": "uint256",
          "name": "totalAmount",
          "type": "uint256"
        }
      ],
      "name": "createEmiPlan",
      "outputs": [],
      "stateMutability": "nonpayable",
      "type": "function"
    },
    {
      "inputs": [
        {
          "internalType": "bytes",
          "name": "performData",
          "type": "bytes"
        }
      ],
      "name": "performUpkeep",
      "outputs": [],
      "stateMutability": "nonpayable",
      "type": "function"
    },
    {
      "inputs": [],
      "name": "planCounter",
      "outputs": [
        {
          "internalType": "uint256",
          "name": "",
          "type": "uint256"
        }
      ],
      "stateMutability": "view",
      "type": "function"
    },
    {
      "inputs": [
        {
          "internalType": "uint256",
          "name": "",
          "type": "uint256"
        }
      ],
      "name": "plans",
      "outputs": [
        {
          "internalType": "address",
          "name": "sender",
          "type": "address"
        },
        {
          "internalType": "address",
          "name": "receiver",
          "type": "address"
        },
        {
          "internalType": "string",
          "name": "receiverNetwork",
          "type": "string"
        },
        {
          "internalType": "address",
          "name": "tokenAddress",
          "type": "address"
        },
        {
          "internalType": "uint256",
          "name": "emiAmount",
          "type": "uint256"
        },
        {
          "internalType": "uint256",
          "name": "interval",
          "type": "uint256"
        },
        {
          "internalType": "uint256",
          "name": "totalAmount",
          "type": "uint256"
        },
        {
          "internalType": "uint256",
          "name": "amountPaid",
          "type": "uint256"
        },
        {
          "internalType": "uint256",
          "name": "nextPaymentTime",
          "type": "uint256"
        },
        {
          "internalType": "bool",
          "name": "isActive",
          "type": "bool"
        }
      ],
      "stateMutability": "view",
      "type": "function"
    }
  ],
  "bytecode": "0x608060405234801561001057600080fd5b506001600081905550611b21806100286000396000f3fe608060405234801561001057600080fd5b50600436106100575760003560e01c80634585e33b1461005c5780634c8cb614146100785780636e04ff0d14610094578063a36a38ed146100c5578063b1620616146100e3575b600080fd5b61007660048036038101906100719190610d0a565b61011c565b005b610092600480360381019061008d9190610f2c565b61047a565b005b6100ae60048036038101906100a99190610d0a565b610880565b6040516100bc92919061106f565b60405180910390f35b6100cd610ae9565b6040516100da91906110ae565b60405180910390f35b6100fd60048036038101906100f891906110c9565b610aef565b6040516101139a9998979695949392919061115a565b60405180910390f35b610124610c38565b6000828281019061013591906110c9565b905060006002600083815260200190815260200160002090508060090160009054906101000a900460ff1661019f576040517f08c379a000000000000000000000000000000000000000000000000000000000815260040161019690611249565b60405180910390fd5b80600801544210156101e6576040517f08c379a00000000000000000000000000000000000000000000000000000000081526004016101dd906112b5565b60405180910390fd5b60008160030160009054906101000a900473ffffffffffffffffffffffffffffffffffffffff1690508073ffffffffffffffffffffffffffffffffffffffff166323b872dd8360000160009054906101000a900473ffffffffffffffffffffffffffffffffffffffff168460010160009054906101000a900473ffffffffffffffffffffffffffffffffffffffff1685600401546040518463ffffffff1660e01b8152600401610298939291906112d5565b6020604051808303816000875af11580156102b7573d6000803e3d6000fd5b505050506040513d601f19601f820116820180604052508101906102db9190611338565b61031a576040517f08c379a0000000000000000000000000000000000000000000000000000000008152600401610311906113b1565b60405180910390fd5b81600401548260070160008282546103329190611400565b9250508190555081600601548260070154106103d55760008260090160006101000a81548160ff0219169083151502179055508160010160009054906101000a900473ffffffffffffffffffffffffffffffffffffffff1673ffffffffffffffffffffffffffffffffffffffff16837fa3bab362c56d9c72948ee10e56218f16c5fa98dc088e4da691faa012cd16dc8560405160405180910390a350505061046e565b8160050154426103e59190611400565b82600801819055508160010160009054906101000a900473ffffffffffffffffffffffffffffffffffffffff1673ffffffffffffffffffffffffffffffffffffffff16837f8ab83c4430024635edd71fef5c6913522144cac183fecf278259ca65d355b77984600401548560080154604051610462929190611434565b60405180910390a35050505b610476610c87565b5050565b600073ffffffffffffffffffffffffffffffffffffffff168673ffffffffffffffffffffffffffffffffffffffff16036104e9576040517f08c379a00000000000000000000000000000000000000000000000000000000081526004016104e0906114a9565b60405180910390fd5b600073ffffffffffffffffffffffffffffffffffffffff168473ffffffffffffffffffffffffffffffffffffffff1603610558576040517f08c379a000000000000000000000000000000000000000000000000000000000815260040161054f90611515565b60405180910390fd5b6000831161059b576040517f08c379a000000000000000000000000000000000000000000000000000000000815260040161059290611581565b60405180910390fd5b828110156105de576040517f08c379a00000000000000000000000000000000000000000000000000000000081526004016105d5906115ed565b60405180910390fd5b603c821015610622576040517f08c379a000000000000000000000000000000000000000000000000000000000815260040161061990611659565b60405180910390fd5b6001600081548092919061063590611679565b9190505550604051806101400160405280600073ffffffffffffffffffffffffffffffffffffffff1681526020018773ffffffffffffffffffffffffffffffffffffffff1681526020018681526020018573ffffffffffffffffffffffffffffffffffffffff16815260200184815260200183815260200182815260200160008152602001600081526020016000151581525060026000600154815260200190815260200160002060008201518160000160006101000a81548173ffffffffffffffffffffffffffffffffffffffff021916908373ffffffffffffffffffffffffffffffffffffffff16021790555060208201518160010160006101000a81548173ffffffffffffffffffffffffffffffffffffffff021916908373ffffffffffffffffffffffffffffffffffffffff160217905550604082015181600201908161078091906118cd565b5060608201518160030160006101000a81548173ffffffffffffffffffffffffffffffffffffffff021916908373ffffffffffffffffffffffffffffffffffffffff1602179055506080820151816004015560a0820151816005015560c0820151816006015560e0820151816007015561010082015181600801556101208201518160090160006101000a81548160ff0219169083151502179055509050508573ffffffffffffffffffffffffffffffffffffffff166001547feb60d1b76e681363ef82e8588496a2097279e71f177d8817dda75669ccfbd43f878787878760405161087095949392919061199f565b60405180910390a3505050505050565b600060606000600190505b6001548111610aca5760006002600083815260200190815260200160002090508060090160009054906101000a900460ff1680156108d0575080600601548160070154105b80156108e0575080600801544210155b80156109b3575080600401548160030160009054906101000a900473ffffffffffffffffffffffffffffffffffffffff1673ffffffffffffffffffffffffffffffffffffffff1663dd62ed3e8360000160009054906101000a900473ffffffffffffffffffffffffffffffffffffffff16306040518363ffffffff1660e01b815260040161096f9291906119f9565b602060405180830381865afa15801561098c573d6000803e3d6000fd5b505050506040513d601f19601f820116820180604052508101906109b09190611a37565b10155b8015610a84575080600401548160030160009054906101000a900473ffffffffffffffffffffffffffffffffffffffff1673ffffffffffffffffffffffffffffffffffffffff166370a082318360000160009054906101000a900473ffffffffffffffffffffffffffffffffffffffff166040518263ffffffff1660e01b8152600401610a409190611a64565b602060405180830381865afa158015610a5d573d6000803e3d6000fd5b505050506040513d601f19601f82011682018060405250810190610a819190611a37565b10155b15610ab657600182604051602001610a9c91906110ae565b604051602081830303815290604052935093505050610ae2565b508080610ac290611679565b91505061088b565b50600060405180602001604052806000815250915091505b9250929050565b60015481565b60026020528060005260406000206000915090508060000160009054906101000a900473ffffffffffffffffffffffffffffffffffffffff16908060010160009054906101000a900473ffffffffffffffffffffffffffffffffffffffff1690806002018054610b5e906116f0565b80601f0160208091040260200160405190810160405280929190818152602001828054610b8a906116f0565b8015610bd75780601f10610bac57610100808354040283529160200191610bd7565b820191906000526020600020905b815481529060010190602001808311610bba57829003601f168201915b5050505050908060030160009054906101000a900473ffffffffffffffffffffffffffffffffffffffff16908060040154908060050154908060060154908060070154908060080154908060090160009054906101000a900460ff1690508a565b600260005403610c7d576040517f08c379a0000000000000000000000000000000000000000000000000000000008152600401610c7490611acb565b60405180910390fd5b6002600081905550565b6001600081905550565b6000604051905090565b600080fd5b600080fd5b600080fd5b600080fd5b600080fd5b60008083601f840112610cca57610cc9610ca5565b5b8235905067ffffffffffffffff811115610ce757610ce6610caa565b5b602083019150836001820283011115610d0357610d02610caf565b5b9250929050565b60008060208385031215610d2157610d20610c9b565b5b600083013567ffffffffffffffff811115610d3f57610d3e610ca0565b5b610d4b85828601610cb4565b92509250509250929050565b600073ffffffffffffffffffffffffffffffffffffffff82169050919050565b6000610d8282610d57565b9050919050565b610d9281610d77565b8114610d9d57600080fd5b50565b600081359050610daf81610d89565b92915050565b600080fd5b6000601f19601f8301169050919050565b7f4e487b7100000000000000000000000000000000000000000000000000000000600052604160045260246000fd5b610e0382610dba565b810181811067ffffffffffffffff82111715610e2257610e21610dcb565b5b80604052505050565b6000610e35610c91565b9050610e418282610dfa565b919050565b600067ffffffffffffffff821115610e6157610e60610dcb565b5b610e6a82610dba565b9050602081019050919050565b82818337600083830152505050565b6000610e99610e9484610e46565b610e2b565b905082815260208101848484011115610eb557610eb4610db5565b5b610ec0848285610e77565b509392505050565b600082601f830112610edd57610edc610ca5565b5b8135610eed848260208601610e86565b91505092915050565b6000819050919050565b610f0981610ef6565b8114610f1457600080fd5b50565b600081359050610f2681610f00565b92915050565b60008060008060008060c08789031215610f4957610f48610c9b565b5b6000610f5789828a01610da0565b965050602087013567ffffffffffffffff811115610f7857610f77610ca0565b5b610f8489828a01610ec8565b9550506040610f9589828a01610da0565b9450506060610fa689828a01610f17565b9350506080610fb789828a01610f17565b92505060a0610fc889828a01610f17565b9150509295509295509295565b60008115159050919050565b610fea81610fd5565b82525050565b600081519050919050565b600082825260208201905092915050565b60005b8381101561102a57808201518184015260208101905061100f565b60008484015250505050565b600061104182610ff0565b61104b8185610ffb565b935061105b81856020860161100c565b61106481610dba565b840191505092915050565b60006040820190506110846000830185610fe1565b81810360208301526110968184611036565b90509392505050565b6110a881610ef6565b82525050565b60006020820190506110c3600083018461109f565b92915050565b6000602082840312156110df576110de610c9b565b5b60006110ed84828501610f17565b91505092915050565b6110ff81610d77565b82525050565b600081519050919050565b600082825260208201905092915050565b600061112c82611105565b6111368185611110565b935061114681856020860161100c565b61114f81610dba565b840191505092915050565b600061014082019050611170600083018d6110f6565b61117d602083018c6110f6565b818103604083015261118f818b611121565b905061119e606083018a6110f6565b6111ab608083018961109f565b6111b860a083018861109f565b6111c560c083018761109f565b6111d260e083018661109f565b6111e061010083018561109f565b6111ee610120830184610fe1565b9b9a5050505050505050505050565b7f506c616e20696e61637469766500000000000000000000000000000000000000600082015250565b6000611233600d83611110565b915061123e826111fd565b602082019050919050565b6000602082019050818103600083015261126281611226565b9050919050565b7f546f6f206561726c790000000000000000000000000000000000000000000000600082015250565b600061129f600983611110565b91506112aa82611269565b602082019050919050565b600060208201905081810360008301526112ce81611292565b9050919050565b60006060820190506112ea60008301866110f6565b6112f760208301856110f6565b611304604083018461109f565b949350505050565b61131581610fd5565b811461132057600080fd5b50565b6000815190506113328161130c565b92915050565b60006020828403121561134e5761134d610c9b565b5b600061135c84828501611323565b91505092915050565b7f5472616e73666572206661696c65640000000000000000000000000000000000600082015250565b600061139b600f83611110565b91506113a682611365565b602082019050919050565b600060208201905081810360008301526113ca8161138e565b9050919050565b7f4e487b7100000000000000000000000000000000000000000000000000000000600052601160045260246000fd5b600061140b82610ef6565b915061141683610ef6565b925082820190508082111561142e5761142d6113d1565b5b92915050565b6000604082019050611449600083018561109f565b611456602083018461109f565b9392505050565b7f496e76616c696420726563656976657200000000000000000000000000000000600082015250565b6000611493601083611110565b915061149e8261145d565b602082019050919050565b600060208201905081810360008301526114c281611486565b9050919050565b7f496e76616c696420746f6b656e00000000000000000000000000000000000000600082015250565b60006114ff600d83611110565b915061150a826114c9565b602082019050919050565b6000602082019050818103600083015261152e816114f2565b9050919050565b7f496e76616c696420454d49000000000000000000000000000000000000000000600082015250565b600061156b600b83611110565b915061157682611535565b602082019050919050565b6000602082019050818103600083015261159a8161155e565b9050919050565b7f546f74616c203c20454d49000000000000000000000000000000000000000000600082015250565b60006115d7600b83611110565b91506115e2826115a1565b602082019050919050565b60006020820190508181036000830152611606816115ca565b9050919050565b7f496e74657276616c203e3d2031206d696e757465000000000000000000000000600082015250565b6000611643601483611110565b915061164e8261160d565b602082019050919050565b6000602082019050818103600083015261167281611636565b9050919050565b600061168482610ef6565b91507fffffffffffffffffffffffffffffffffffffffffffffffffffffffffffffffff82036116b6576116b56113d1565b5b600182019050919050565b7f4e487b7100000000000000000000000000000000000000000000000000000000600052602260045260246000fd5b6000600282049050600182168061170857607f821691505b60208210810361171b5761171a6116c1565b5b50919050565b60008190508160005260206000209050919050565b60006020601f8301049050919050565b600082821b905092915050565b6000600883026117837fffffffffffffffffffffffffffffffffffffffffffffffffffffffffffffffff82611746565b61178d8683611746565b95508019841693508086168417925050509392505050565b6000819050919050565b60006117ca6117c56117c084610ef6565b6117a5565b610ef6565b9050919050565b6000819050919050565b6117e4836117af565b6117f86117f0826117d1565b848454611753565b825550505050565b600090565b61180d611800565b6118188184846117db565b505050565b5b8181101561183c57611831600082611805565b60018101905061181e565b5050565b601f8211156118815761185281611721565b61185b84611736565b8101602085101561186a578190505b61187e61187685611736565b83018261181d565b50505b505050565b600082821c905092915050565b60006118a460001984600802611886565b1980831691505092915050565b60006118bd8383611893565b9150826002028217905092915050565b6118d682611105565b67ffffffffffffffff8111156118ef576118ee610dcb565b5b6118f982546116f0565b611904828285611840565b600060209050601f8311600181146119375760008415611925578287015190505b61192f85826118b1565b865550611997565b601f19841661194586611721565b60005b8281101561196d57848901518255600182019150602085019450602081019050611948565b8683101561198a5784890151611986601f891682611893565b8355505b6001600288020188555050505b505050505050565b600060a08201905081810360008301526119b98188611121565b90506119c860208301876110f6565b6119d5604083018661109f565b6119e2606083018561109f565b6119ef608083018461109f565b9695505050505050565b6000604082019050611a0e60008301856110f6565b611a1b60208301846110f6565b9392505050565b600081519050611a3181610f00565b92915050565b600060208284031215611a4d57611a4c610c9b565b5b6000611a5b84828501611a22565b91505092915050565b6000602082019050611a7960008301846110f6565b92915050565b7f5265656e7472616e637947756172643a207265656e7472616e742063616c6c00600082015250565b6000611ab5601f83611110565b9150611ac082611a7f565b602082019050919050565b60006020820190508181036000830152611ae481611aa8565b905091905056fea264697066735822122021bd33863c3c797449a1cc03d476e5d174015fc599a7f606fa0ac0109dbd90a764736f6c63430008140033",
  "linkReferences": {},
  "deployedLinkReferences": {}
}